:10016D0011083F065B4F666D7D076F7F6F777C399A
:03017D005E797137
:040191007FE87E0382
:0B019500EF1FAC0670011E4C70F6223C
:10000300E4F5197590F7E59064F76028120191AF54
:1000130090EF2449601124E0601224F060132470EF
:100023007012751901800D751905800875190980FD
:100033000375190DE590B4F7FB7590FBE59064FB30
:100043006028120191AF90EF2445601124E0601203
:1000530024F0601324707012751902800D7519064F
:10006300800875190A800375190EE590B4FBFB75BA
:1000730090FDE59064FD6028120191AF90EF244359
:10008300601124E0601224F060132470701275195B
:1000930003800D751907800875190B800375190FF7
:1000A300E590B4FDFB7590FEE59064FE60281201B7
:1000B30091AF90EF2442601124E0601224F06013AA
:1000C30024707012751904800D751908800875194C
:0D00D3000C8003751910E590B4FEFBAF1909
:0100E00022FD
:10018100E4FF120003EF60FA2408F8E6F58080F23C
:030000000200E11A
:0C00E100787FE4F6D8FD75811902012833
:1000ED00020181E493A3F8E493A34003F68001F2A7
:1000FD0008DFF48029E493A3F85407240CC8C33314
:10010D00C4540F4420C8834004F456800146F6DFE2
:10011D00E4800B010204081020408090016DE47E04
:10012D00019360BCA3FF543F30E509541FFEE493D7
:10013D00A360010ECF54C025E060A840B8E493A39E
:10014D00FAE493A3F8E493A3C8C582C8CAC583CAC9
:10015D00F0A3C8C582C8CAC583CADFE9DEE780BE81
:01018000007E
:00000001FF
