:1000EA000810387C7E3F3F7E7C380808147C143E1A
:0400FA002AFF2A3E71
:0400FF007F017E00FF
:0B010300EF1FAC0670011E4C70F622CE
:02008F00AD07BB
:10009100E4FBFAEDC4131313540124FF92B4ED25CC
:1000A100E0FDC2B61200FFD2B61200FF0BBB000189
:1000B1000AEB64084A70DCC2B51200FFD2B57F01B9
:0500C1007E00020103B6
:1000C600E4F9740829F8E6F580741029F8E6FF12B9
:1000D600008F7F647E00120103E4FF12008F09B9CE
:0400E60008E080DCD2
:03000000020003F8
:0C000300787FE4F6D8FD75811702004AF2
:10000F000200C6E493A3F8E493A34003F68001F241
:10001F0008DFF48029E493A3F85407240CC8C333F2
:10002F00C4540F4420C8834004F456800146F6DFC1
:10003F00E4800B01020408102040809000EAE47E67
:10004F00019360BCA3FF543F30E509541FFEE493B6
:10005F00A360010ECF54C025E060A840B8E493A37D
:10006F00FAE493A3F8E493A3C8C582C8CAC583CAA8
:10007F00F0A3C8C582C8CAC583CADFE9DEE780BE60
:0100FE000001
:00000001FF
