:0F009D00C2B67F017E001200ACD2B67F017E009A
:0B00AC00EF1FAC0670011E4C70F62226
:060003008F09A905AD0301
:10000900E4FBFAE50CC4131313540124FF92B4E57D
:100019000C25E0F50C12009D0BBB00010AEB6408EE
:100029004A70E0E4FAFBEDC4131313540124FF9260
:10003900B4ED25E0FD12009D0BBB00010AEB64083D
:100049004A70E3E4FAFBE9C4131313540124FF9241
:10005900B4E925E0F912009D0BBB00010AEB640825
:100069004A70E3E4FAFBE509C4131313540124FFAE
:1000790092B4E50925E0F50912009D0BBB00010AC0
:10008900EB64084A70E0C2B51200A8D2B57F017EC0
:04009900000200ACB5
:1000B700E4F508750CFF7BFEE4FD7F011200038069
:0100C700F246
:030000000200C833
:0C00C800787FE4F6D8FD75810C0200B7CB
:00000001FF
