:03031F00012301B6
:10019500EF6003752301E5236401702E30B109304A
:1001A500B00630B20320B3227F107E2712038CE401
:1001B500F52320B1037F012220B0037F022220B264
:1001C500037F032220B3127F042220B10C20B00943
:0B01D50020B20620B3037523017F0059
:0101E00022FC
:1003220011083F065B4F666D7D076F7F6F777C39E3
:030332005E797180
:060003008B1E8A1F8920FC
:10000900E4F521ED14F522F521E521C39408400317
:1000190002009BE521B40800504D90002AF82828D9
:100029007302004202004602004A02004E020052D8
:1000390002005A02006202006AD2A4800ED2A48091
:1000490012D2A48016D2A4801AC2A4D2A3D2A280AA
:1000590016C2A4D2A3C2A2800EC2A4C2A3D2A280F5
:1000690006C2A4C2A3C2A2C3E5219522FFE494005B
:10007900AB1EAA1FA9208F82F5831202892408F8D2
:10008900E6F5807F647E0012038CE4F58005210289
:02009900001253
:01009B002242
:10036400D2A1D2A07F017E0012038CC2A07F017EA5
:040374000002038CF4
:10037800D2A1C2A07F017E0012038CD2A07F017E91
:040388000002038CE0
:10033600C2A1C2A07F017E0012038CD2A17F017EE2
:070346000012038CC2A1228A
:10034D00C2A1D2A07F017E0012038CD2A17F017EBB
:07035D000012038CC2A12273
:1002DF00E4F520C2A17F01FE12038C30A00F052090
:1002EF00E520C3946440F41203787F0122C2A17FFA
:0102FF0000FE
:0103000022DA
:02021F008F202E
:10022100E4F521C2A1F521E5205480D394004004D6
:10023100D2A08002C2A0E52025E0F520D2A17F0155
:100241007E0012038CC2A17F017E0012038C052166
:07025100E521C3940840D031
:010258002283
:0201E1008F206D
:1001E300E4F521F522F521C2A17F017E0012038CE3
:1001F300D2A17F017E0012038CE52225E0F5223097
:10020300A00205220521E521C3940840DAE5207008
:0B0213000512034D8003120336AF22DA
:01021E0022BD
:1002B6008F1E8D1F1203647FA012021F1202DFAF72
:1002C6001E12021F1202DFAF1F12021F1202DF12DE
:0902D60003787F0A7E0002030197
:020259008F1EF6
:10025B00E4F51F1203647FA012021F1202DFAF1E10
:10026B0012021F1202DF1203647FA112021F12027D
:0D027B00DFE4FF1201E18F1F120378AF1FB7
:010288002253
:10012800E4F519F51AE4FF1201958F19E519B401E0
:1001380009AD1AE4FF1202B68027E519B40209E4F2
:10014800FF1202598F1A8019E519B4030C051AE534
:100158001AB4E10D751AE18008E519B40403E4F551
:100168001AE51A75F06484F51BE51A75F06484AF16
:10017800F0EF75F00A84F51CEF75F00A8485F01D20
:0D0188007B007A00791B7D06120003809831
:0B038C00EF1FAC0670011E4C70F62243
:10030100D3EF9400EE940040147D6E7C00ED1D70DF
:0D031100011CED4C70F7EF1F70E61E80E33D
:01031E0022BC
:0300000002009C5F
:0C009C00787FE4F6D8FD7581230200E3B4
:10028900BB010CE58229F582E5833AF583E022502A
:1002990006E92582F8E622BBFE06E92582F8E22274
:0D02A900E58229F582E5833AF583E493228E
:1000A800020128E493A3F8E493A34003F68001F245
:1000B80008DFF48029E493A3F85407240CC8C33359
:1000C800C4540F4420C8834004F456800146F6DF28
:1000D800E4800B010204081020408090031FE47E96
:1000E800019360BCA3FF543F30E509541FFEE4931D
:1000F800A360010ECF54C025E060A840B8E493A3E4
:10010800FAE493A3F8E493A3C8C582C8CAC583CA0E
:10011800F0A3C8C582C8CAC583CADFE9DEE780BEC6
:0103350000C7
:00000001FF
