:1001000011093F065B4F666D7D076F7F6F777C3906
:060110005E797101080098
:0B012700EF1FAC0670011E4C70F622AA
:10008F0075900FE590640F6062E590640F605F7F7D
:10009F00E87E03120127AF90EF24F5601024FE6075
:1000AF001114601324077012750801800D75080272
:1000BF00800875080380037508047590F0AF90EF02
:1000CF002450601124E0601124F06011247070132B
:1000DF00850808800E7404800674088002740C254D
:1000EF0008F508E59064F0600580F8E4F508AF08BE
:0100FF0022DE
:10011700E4FF12008FEF60FA2409F8E6F58080F219
:03000000020003F8
:0C000300787FE4F6D8FD75811902004AF0
:10000F00020117E493A3F8E493A34003F68001F2EF
:10001F0008DFF48029E493A3F85407240CC8C333F2
:10002F00C4540F4420C8834004F456800146F6DFC1
:10003F00E4800B0102040810204080900100E47E50
:10004F00019360BCA3FF543F30E509541FFEE493B6
:10005F00A360010ECF54C025E060A840B8E493A37D
:10006F00FAE493A3F8E493A3C8C582C8CAC583CAA8
:10007F00F0A3C8C582C8CAC583CADFE9DEE780BE60
:0101160000E8
:00000001FF
