:03016E0001190173
:10010400EF6003751901E5196401702E30B10930EF
:10011400B00630B20320B3227F107E27120185E49B
:10012400F51920B1037F012220B0037F022220B2FF
:10013400037F032220B3127F042220B10C20B009D4
:0B01440020B20620B3037519017F00F4
:01014F00228D
:1001710011083F065B4F666D7D076F7F6F777C3996
:030181005E797133
:10008F00E4F51AF51AE51AB40800504D9000A2F8DD
:10009F002828730200BA0200BE0200C20200C60284
:1000AF0000CA0200D20200DA0200E2D2A4800ED20D
:1000BF00A48012D2A48016D2A4801AC2A4D2A3D232
:1000CF00A28016C2A4D2A3C2A2800EC2A4C2A3D27F
:1000DF00A28006C2A4C2A3C2A27408251AF8E6F52C
:1000EF00807F647E00120185E4F580051AE51AC34E
:0400FF009408409190
:0101030022D9
:07019000E4FF12010480FEF0
:0B018500EF1FAC0670011E4C70F6224C
:10015000D3EF9400EE940040147D6E7C00ED1D7092
:0D016000011CED4C70F7EF1F70E61E80E3F0
:01016D00226F
:03000000020003F8
:0C000300787FE4F6D8FD75811A02004AEF
:10000F00020190E493A3F8E493A34003F68001F276
:10001F0008DFF48029E493A3F85407240CC8C333F2
:10002F00C4540F4420C8834004F456800146F6DFC1
:10003F00E4800B010204081020408090016EE47EE2
:10004F00019360BCA3FF543F30E509541FFEE493B6
:10005F00A360010ECF54C025E060A840B8E493A37D
:10006F00FAE493A3F8E493A3C8C582C8CAC583CAA8
:10007F00F0A3C8C582C8CAC583CADFE9DEE780BE60
:01018400007A
:00000001FF
