:0400EC000208000006
:1000C100D3EF9400EE940040147D6E7C00ED1D7022
:0D00D100011CED4C70F7EF1F70E61E80E380
:0100DE0022FF
:0D00DF00438901758CFCD2A9D2AFD28C22CE
:050003001200DF80FE89
:03000B0002009A56
:04009A00C0E0C0D032
:10009E00438901758CFC0509E50970020508B4E871
:0E00AE000DE508B40308750800750900B2A03E
:0500BC00D0D0D0E032BD
:0300000002000EED
:0C000E00787FE4F6D8FD758109020055EA
:10001A00020003E493A3F8E493A34003F68001F2F9
:10002A0008DFF48029E493A3F85407240CC8C333E7
:10003A00C4540F4420C8834004F456800146F6DFB6
:10004A00E4800B01020408102040809000ECE47E5A
:10005A00019360BCA3FF543F30E509541FFEE493AB
:10006A00A360010ECF54C025E060A840B8E493A372
:10007A00FAE493A3F8E493A3C8C582C8CAC583CA9D
:10008A00F0A3C8C582C8CAC583CADFE9DEE780BE55
:0100F000000F
:00000001FF
