:100143000810387C7E3F3F7E7C3808087FBFDFEF96
:04015300F7FBFDFEBB
:0F012900C2B67F017E00120138D2B67F017E0080
:0B013800EF1FAC0670011E4C70F62299
:060003008F19A905AD03F1
:10000900E4FBFAE51CC4131313540124FF92B4E56D
:100019001C25E0F51C1201290BBB00010AEB640841
:100029004A70E0E4FAFBEDC4131313540124FF9260
:10003900B4ED25E0FD1201290BBB00010AEB6408B0
:100049004A70E3E4FAFBE9C4131313540124FF9241
:10005900B4E925E0F91201290BBB00010AEB640898
:100069004A70E3E4FAFBE519C4131313540124FF9E
:1000790092B4E51925E0F5191201290BBB00010A13
:10008900EB64084A70E0C2B5120134D2B57F017E33
:040099000002013828
:10015800E4F518751CFF7BFEE4FD7F0112000380A7
:01016800F2A4
:0300000002009D5E
:0C009D00787FE4F6D8FD75811C0200E4B9
:1000A900020158E493A3F8E493A34003F68001F214
:1000B90008DFF48029E493A3F85407240CC8C33358
:1000C900C4540F4420C8834004F456800146F6DF27
:1000D900E4800B0102040810204080900143E47E73
:1000E900019360BCA3FF543F30E509541FFEE4931C
:1000F900A360010ECF54C025E060A840B8E493A3E3
:10010900FAE493A3F8E493A3C8C582C8CAC583CA0D
:10011900F0A3C8C582C8CAC583CADFE9DEE780BEC5
:0101570000A7
:00000001FF
