:1001A4000810010204081020408008088040201034
:0401B4000804020138
:0F018A00C2B67F017E00120199D2B67F017E00BE
:0B019900EF1FAC0670011E4C70F62238
:10016C00D3EF9400EE940040147D6E7C00ED1D7076
:0D017C00011CED4C70F7EF1F70E61E80E3D4
:010189002253
:060003008F19A905AD03F1
:10000900E4FBFAE51CC4131313540124FF92B4E56D
:100019001C25E0F51C12018A0BBB00010AEB6408E0
:100029004A70E0E4FAFBEDC4131313540124FF9260
:10003900B4ED25E0FD12018A0BBB00010AEB64084F
:100049004A70E3E4FAFBE9C4131313540124FF9241
:10005900B4E925E0F912018A0BBB00010AEB640837
:100069004A70E3E4FAFBE519C4131313540124FF9E
:1000790092B4E51925E0F51912018A0BBB00010AB2
:0D008900EB64084A70E0C2B5120195D2B5D3
:010096002247
:10012300E4F518E4F51874102518F8E6FFE4F51C57
:10013300FBFD1200037FF47E0112016C0518E51824
:10014300C3940840E1E4F518E518C3940850D47447
:10015300102518F8E6FDE4F51CFBFF1200037FF4FD
:090163007E0112016C051880DF19
:0300000002009764
:0C009700787FE4F6D8FD75811C0200DEC5
:1000A300020123E493A3F8E493A34003F68001F24F
:1000B30008DFF48029E493A3F85407240CC8C3335E
:1000C300C4540F4420C8834004F456800146F6DF2D
:1000D300E4800B01020408102040809001A4E47E18
:1000E300019360BCA3FF543F30E509541FFEE49322
:1000F300A360010ECF54C025E060A840B8E493A3E9
:10010300FAE493A3F8E493A3C8C582C8CAC583CA13
:10011300F0A3C8C582C8CAC583CADFE9DEE780BECB
:0101B8000046
:00000001FF
