:0A00F50008080102040810204080F2
:0400E6007F017E0018
:0B00EA00EF1FAC0670011E4C70F622E8
:02008F00AD07BB
:10009100E4FBFAEDC4131313540124FF92B4ED25CC
:1000A100E0FDC2B61200E6D2B61200E60BBB0001BB
:1000B1000AEB64084A70DCC2B51200E6D2B57F01D2
:0500C1007E000200EAD0
:1000C600E4F580E4F9E4FF12008F740829F8E6FFEE
:1000D60012008F7F507EC31200EA09B908E780E359
:03000000020003F8
:0C000300787FE4F6D8FD75810F02004AFA
:10000F000200C6E493A3F8E493A34003F68001F241
:10001F0008DFF48029E493A3F85407240CC8C333F2
:10002F00C4540F4420C8834004F456800146F6DFC1
:10003F00E4800B01020408102040809000F5E47E5C
:10004F00019360BCA3FF543F30E509541FFEE493B6
:10005F00A360010ECF54C025E060A840B8E493A37D
:10006F00FAE493A3F8E493A3C8C582C8CAC583CAA8
:10007F00F0A3C8C582C8CAC583CADFE9DEE780BE60
:0100FF000000
:00000001FF
