:0301C8000108012A
:10019F00D3EF9400EE940040147D6E7C00ED1D7043
:0D01AF00011CED4C70F7EF1F70E61E80E3A1
:0101BC002220
:10008F00AE07ED7005C374079FFEEEB40800505223
:10009F009000A6F82828730200BE0200C20200C614
:1000AF000200CC0200D20200DB0200E40200E8D220
:1000BF00908031D2908002C290D2918029C290D28A
:1000CF00918004C290C291D292C29322C290C291E7
:1000DF00D292D29322C2908002D290C291C292D277
:0A00EF009322C290C291C292C29304
:0100F90022E4
:0B01BD00EF1FAC0670011E4C70F62214
:10015300EF6003750801E5086401702E30B10930C2
:10016300B00630B20320B3227F107E271201BDE414
:10017300F50820B1037F012220B0037F022220B2C1
:10018300037F032220B3127F042220B10C20B00985
:0B01930020B20620B3037508017F00B6
:01019E00223E
:1000FA00E4FBF509F97AE8E4FF120153AB07BB0107
:10010A000EE50970047F0180027F008F0980E8BB39
:10011A000210EAD394E87480948340DB749C2AFA30
:10012A0080D5BB03D2EAC394D074809487500474F8
:10013A00642AFAAF0109AD0912008FB90802E4F97D
:09014A00EAFF7E0012019F80AE65
:03000000020003F8
:0C000300787FE4F6D8FD75810902004A00
:10000F000200FAE493A3F8E493A34003F68001F20D
:10001F0008DFF48029E493A3F85407240CC8C333F2
:10002F00C4540F4420C8834004F456800146F6DFC1
:10003F00E4800B01020408102040809001C8E47E88
:10004F00019360BCA3FF543F30E509541FFEE493B6
:10005F00A360010ECF54C025E060A840B8E493A37D
:10006F00FAE493A3F8E493A3C8C582C8CAC583CAA8
:10007F00F0A3C8C582C8CAC583CADFE9DEE780BE60
:0101CB000033
:00000001FF
