:1001170011083F065B4F666D7D076F7F6F777C39F0
:030127005E79718D
:04012B007F507EC3C0
:0B012F00EF1FAC0670011E4C70F622A2
:10008F00E4FDEDC3940850117401A805088002C364
:10009F0033D8FCF4F5A012012B85088012012B85B3
:1000AF00098012012B850A8012012B850B8012010A
:1000BF002B850C8012012B850D8012012B850E8054
:1000CF0012012B850F8012012B85108012012B85B9
:1000DF00118012012B85128012012B8513801201C2
:1000EF002B85148012012B85158012012B8516800C
:1000FF0012012B85178012012B85188012012B8579
:08010F00198012012B02008F80
:03000000020003F8
:0C000300787FE4F6D8FD75811802004AF1
:10000F0002008FE493A3F8E493A34003F68001F278
:10001F0008DFF48029E493A3F85407240CC8C333F2
:10002F00C4540F4420C8834004F456800146F6DFC1
:10003F00E4800B0102040810204080900117E47E39
:10004F00019360BCA3FF543F30E509541FFEE493B6
:10005F00A360010ECF54C025E060A840B8E493A37D
:10006F00FAE493A3F8E493A3C8C582C8CAC583CAA8
:10007F00F0A3C8C582C8CAC583CADFE9DEE780BE60
:01012A0000D4
:00000001FF
